{
  "contractName": "OddEven",
  "abi": [
    {
      "constant": false,
      "inputs": [
        {
          "name": "number",
          "type": "uint256"
        }
      ],
      "name": "play",
      "outputs": [],
      "payable": true,
      "stateMutability": "payable",
      "type": "function"
    }
  ],
  "bytecode": "0x60806040526000600460006101000a81548160ff021916908360ff16021790555034801561002c57600080fd5b506103768061003c6000396000f300608060405260043610610041576000357c0100000000000000000000000000000000000000000000000000000000900463ffffffff1680636898f82b14610046575b600080fd5b61006460048036038101908080359060200190929190505050610066565b005b670de0b6b3a7640000341415156100e5576040517f08c379a000000000000000000000000000000000000000000000000000000000815260040180806020018281038252601e8152602001807f496e636f72726563742076616c75652e2053656e6420312065746865722e000081525060200191505060405180910390fd5b60408051908101604052803373ffffffffffffffffffffffffffffffffffffffff168152602001828152506000600460009054906101000a900460ff1660ff1660028110151561013157fe5b6002020160008201518160000160006101000a81548173ffffffffffffffffffffffffffffffffffffffff021916908373ffffffffffffffffffffffffffffffffffffffff160217905550602082015181600101559050506004600081819054906101000a900460ff168092919060010191906101000a81548160ff021916908360ff160217905550506002600460009054906101000a900460ff1660ff1614156101df576101de6101e2565b5b50565b60008060016002811015156101f357fe5b600202016001015460008060028110151561020a57fe5b6002020160010154019050600060028281151561022357fe5b0660028110151561023057fe5b6002020160000160009054906101000a900473ffffffffffffffffffffffffffffffffffffffff1673ffffffffffffffffffffffffffffffffffffffff166108fc3073ffffffffffffffffffffffffffffffffffffffff16319081150290604051600060405180830381858888f193505050501580156102b4573d6000803e3d6000fd5b506000806102c291906102e1565b6000600460006101000a81548160ff021916908360ff16021790555050565b50600080820160006101000a81549073ffffffffffffffffffffffffffffffffffffffff0219169055600182016000905550600201600080820160006101000a81549073ffffffffffffffffffffffffffffffffffffffff0219169055600182016000905550505600a165627a7a72305820fb2be1d732e1dadf730781524d642c22856cee3551af4cdb30301efc76c7ac7c0029",
  "source": "// WARNING: This is a sample contract to demonstrate the functionality. Don't use it in your project.\r\npragma solidity ^0.4.21;\r\n\r\ncontract OddEven {\r\n   struct Player { \r\n     address addr; \r\n     uint number;\r\n   }\r\n   \r\n   Player[2] private players;\r\n   uint8 count = 0; \r\n\r\n   function play(uint number) payable public {\r\n        require(msg.value == 1 ether, \"Incorrect value. Send 1 ether.\");\r\n        players[count] = Player(msg.sender, number);\r\n        count++;\r\n        if (count == 2) selectWinner();\r\n   }\r\n   \r\n   function selectWinner() private {\r\n        uint n = players[0].number + players[1].number;\r\n        players[n%2].addr.transfer(address(this).balance);\r\n        delete players;\r\n        count = 0;\r\n   }\r\n }",
  "sourcePath": "C:\\Users\\Admin\\node.js_projects\\crow_v0\\contracts\\OddEven.sol",
  "compiler": {
    "name": "solc",
    "version": "0.4.24+commit.e67f0147.Emscripten.clang"
  },
  "schemaVersion": "2.0.1",
  "updatedAt": "2018-10-18T03:09:27.977Z"
}