{
  "contractName": "TruthStake",
  "abi": [
    {
      "constant": true,
      "inputs": [],
      "name": "stakeEnded",
      "outputs": [
        {
          "name": "",
          "type": "bool"
        }
      ],
      "payable": false,
      "stateMutability": "view",
      "type": "function"
    },
    {
      "constant": true,
      "inputs": [],
      "name": "marketMaker",
      "outputs": [
        {
          "name": "",
          "type": "address"
        }
      ],
      "payable": false,
      "stateMutability": "view",
      "type": "function"
    },
    {
      "constant": true,
      "inputs": [],
      "name": "totalPot",
      "outputs": [
        {
          "name": "",
          "type": "uint256"
        }
      ],
      "payable": false,
      "stateMutability": "view",
      "type": "function"
    },
    {
      "constant": true,
      "inputs": [],
      "name": "TPot",
      "outputs": [
        {
          "name": "",
          "type": "uint256"
        }
      ],
      "payable": false,
      "stateMutability": "view",
      "type": "function"
    },
    {
      "constant": true,
      "inputs": [],
      "name": "FPot",
      "outputs": [
        {
          "name": "",
          "type": "uint256"
        }
      ],
      "payable": false,
      "stateMutability": "view",
      "type": "function"
    },
    {
      "constant": true,
      "inputs": [],
      "name": "stakeIndex",
      "outputs": [
        {
          "name": "",
          "type": "uint256"
        }
      ],
      "payable": false,
      "stateMutability": "view",
      "type": "function"
    },
    {
      "constant": true,
      "inputs": [],
      "name": "statement",
      "outputs": [
        {
          "name": "",
          "type": "string"
        }
      ],
      "payable": false,
      "stateMutability": "view",
      "type": "function"
    },
    {
      "constant": true,
      "inputs": [],
      "name": "stakeEndTime",
      "outputs": [
        {
          "name": "",
          "type": "uint256"
        }
      ],
      "payable": false,
      "stateMutability": "view",
      "type": "function"
    },
    {
      "inputs": [
        {
          "name": "_statement",
          "type": "string"
        },
        {
          "name": "_stakingTime",
          "type": "uint256"
        }
      ],
      "payable": false,
      "stateMutability": "nonpayable",
      "type": "constructor"
    },
    {
      "anonymous": false,
      "inputs": [
        {
          "indexed": false,
          "name": "amount",
          "type": "uint256"
        }
      ],
      "name": "NewStake",
      "type": "event"
    },
    {
      "anonymous": false,
      "inputs": [
        {
          "indexed": false,
          "name": "finalPot",
          "type": "uint256"
        }
      ],
      "name": "StakeEnded",
      "type": "event"
    },
    {
      "anonymous": false,
      "inputs": [
        {
          "indexed": false,
          "name": "contractBalance",
          "type": "uint256"
        }
      ],
      "name": "CurrentPot",
      "type": "event"
    },
    {
      "anonymous": false,
      "inputs": [
        {
          "indexed": false,
          "name": "position",
          "type": "uint256"
        }
      ],
      "name": "MajorityStaked",
      "type": "event"
    },
    {
      "anonymous": false,
      "inputs": [
        {
          "indexed": false,
          "name": "stakerIndex",
          "type": "uint256"
        },
        {
          "indexed": false,
          "name": "stakerAddr",
          "type": "address"
        },
        {
          "indexed": false,
          "name": "stakerStake",
          "type": "uint256"
        },
        {
          "indexed": false,
          "name": "stakerPosition",
          "type": "uint256"
        }
      ],
      "name": "CorrectStaker",
      "type": "event"
    },
    {
      "anonymous": false,
      "inputs": [
        {
          "indexed": false,
          "name": "statement",
          "type": "string"
        }
      ],
      "name": "StatementStaked",
      "type": "event"
    },
    {
      "anonymous": false,
      "inputs": [
        {
          "indexed": false,
          "name": "loopNumber",
          "type": "uint256"
        }
      ],
      "name": "LoopCheck",
      "type": "event"
    },
    {
      "anonymous": false,
      "inputs": [
        {
          "indexed": false,
          "name": "stakersIndex",
          "type": "uint256"
        }
      ],
      "name": "StakerCheck",
      "type": "event"
    },
    {
      "anonymous": false,
      "inputs": [
        {
          "indexed": false,
          "name": "currentStakeIndex",
          "type": "uint256"
        }
      ],
      "name": "IndexCheck",
      "type": "event"
    },
    {
      "anonymous": false,
      "inputs": [
        {
          "indexed": false,
          "name": "rewardTransfered",
          "type": "uint256"
        }
      ],
      "name": "RewardCheck",
      "type": "event"
    },
    {
      "anonymous": false,
      "inputs": [
        {
          "indexed": false,
          "name": "profitCalculated",
          "type": "uint256"
        }
      ],
      "name": "ProfitCheck",
      "type": "event"
    },
    {
      "anonymous": false,
      "inputs": [
        {
          "indexed": false,
          "name": "TPotValue",
          "type": "uint256"
        },
        {
          "indexed": false,
          "name": "FPotValue",
          "type": "uint256"
        }
      ],
      "name": "PotsCheck",
      "type": "event"
    },
    {
      "constant": false,
      "inputs": [
        {
          "name": "_position",
          "type": "uint256"
        }
      ],
      "name": "stake",
      "outputs": [],
      "payable": true,
      "stateMutability": "payable",
      "type": "function"
    },
    {
      "constant": false,
      "inputs": [],
      "name": "endStake",
      "outputs": [],
      "payable": false,
      "stateMutability": "nonpayable",
      "type": "function"
    }
  ],
  "bytecode": "0x608060405234801561001057600080fd5b50604051610e7a380380610e7a8339810180604052810190808051820192919060200180519060200190929190505050600082511115156100b9576040517f08c379a00000000000000000000000000000000000000000000000000000000081526004018080602001828103825260198152602001807f436f6e7374727563746f7220417267756d656e7420746573740000000000000081525060200191505060405180910390fd5b80420160068190555081600590805190602001906100d89291906101db565b507f12a972445749701068be9a254a3ac9e45810cf6cb9e2bca3a0dead0c15601432600560405180806020018281038252838181546001816001161561010002031660029004815260200191508054600181600116156101000203166002900480156101855780601f1061015a57610100808354040283529160200191610185565b820191906000526020600020905b81548152906001019060200180831161016857829003601f168201915b50509250505060405180910390a133600460006101000a81548173ffffffffffffffffffffffffffffffffffffffff021916908373ffffffffffffffffffffffffffffffffffffffff1602179055505050610280565b828054600181600116156101000203166002900490600052602060002090601f016020900481019282601f1061021c57805160ff191683800117855561024a565b8280016001018555821561024a579182015b8281111561024957825182559160200191906001019061022e565b5b509050610257919061025b565b5090565b61027d91905b80821115610279576000816000905550600101610261565b5090565b90565b610beb8061028f6000396000f3006080604052600436106100a4576000357c0100000000000000000000000000000000000000000000000000000000900463ffffffff168063129de5cf146100a95780631f21f9af146100d857806324b570a91461012f578063851f0a851461015a5780638e37e66e14610185578063941d82d6146101b0578063a694fc3a146101db578063bcee7612146101fb578063e42cb9f314610212578063fafcca8c146102a2575b600080fd5b3480156100b557600080fd5b506100be6102cd565b604051808215151515815260200191505060405180910390f35b3480156100e457600080fd5b506100ed6102e0565b604051808273ffffffffffffffffffffffffffffffffffffffff1673ffffffffffffffffffffffffffffffffffffffff16815260200191505060405180910390f35b34801561013b57600080fd5b50610144610306565b6040518082815260200191505060405180910390f35b34801561016657600080fd5b5061016f61030c565b6040518082815260200191505060405180910390f35b34801561019157600080fd5b5061019a610312565b6040518082815260200191505060405180910390f35b3480156101bc57600080fd5b506101c5610318565b6040518082815260200191505060405180910390f35b6101f96004803603810190808035906020019092919050505061031e565b005b34801561020757600080fd5b506102106104a3565b005b34801561021e57600080fd5b50610227610602565b6040518080602001828103825283818151815260200191508051906020019080838360005b8381101561026757808201518184015260208101905061024c565b50505050905090810190601f1680156102945780820380516001836020036101000a031916815260200191505b509250505060405180910390f35b3480156102ae57600080fd5b506102b76106a0565b6040518082815260200191505060405180910390f35b600760009054906101000a900460ff1681565b600460009054906101000a900473ffffffffffffffffffffffffffffffffffffffff1681565b60025481565b60005481565b60015481565b60035481565b600034111515610396576040517f08c379a00000000000000000000000000000000000000000000000000000000081526004018080602001828103825260198152602001807f496e73756666696369656e74207374616b652076616c75652e0000000000000081525060200191505060405180910390fd5b60806040519081016040528060035481526020013373ffffffffffffffffffffffffffffffffffffffff168152602001348152602001828152506008600060035481526020019081526020016000206000820151816000015560208201518160010160006101000a81548173ffffffffffffffffffffffffffffffffffffffff021916908373ffffffffffffffffffffffffffffffffffffffff16021790555060408201518160020155606082015181600301559050506003600081548092919060010191905055507f9193436894c1e220c236b0df5dd44eb674082159bf8dfacdba8b79270ced9e69346040518082815260200191505060405180910390a16104a034826106a6565b50565b6000600760009054906101000a900460ff16151515610550576040517f08c379a00000000000000000000000000000000000000000000000000000000081526004018080602001828103825260218152602001807f656e645374616b652068617320616c7265616479206265656e2063616c6c656481526020017f2e0000000000000000000000000000000000000000000000000000000000000081525060400191505060405180910390fd5b6001600760006101000a81548160ff0219169083151502179055506001546000541015156105815760019050610586565b600090505b7f5c9f2456dc000d29b80fd797687d0579505ed91b9ed9fc0696a97250ec6110a96002546040518082815260200191505060405180910390a17fd2c4f99e0dcdd2d5d994682620ba03136c688092dde2fb87f337b2d50a099cdb816040518082815260200191505060405180910390a16105ff81610736565b50565b60058054600181600116156101000203166002900480601f0160208091040260200160405190810160405280929190818152602001828054600181600116156101000203166002900480156106985780601f1061066d57610100808354040283529160200191610698565b820191906000526020600020905b81548152906001019060200180831161067b57829003601f168201915b505050505081565b60065481565b8160026000828254019250508190555060018114156106d3578160008082825401925050819055506106e4565b816001600082825401925050819055505b7f22e6787cfe5d9122cec4f96fbe7de8eea599e8de66c7ea53a96a206f4baecb093073ffffffffffffffffffffffffffffffffffffffff16316040518082815260200191505060405180910390a15050565b60008060007f22e6787cfe5d9122cec4f96fbe7de8eea599e8de66c7ea53a96a206f4baecb093073ffffffffffffffffffffffffffffffffffffffff16316040518082815260200191505060405180910390a17f5e71db850570fbf3212548aa42a3aaaff506e3b4910e34ef17f988162c6454206003546040518082815260200191505060405180910390a1600090505b600354811015610a59578360086000838152602001908152602001600020600301541415610a4c577f292ad332e0416a83bcda559fc6ca10aa093c6f5061e7c4195dc57d21fe21a2d160086000838152602001908152602001600020600001546008600084815260200190815260200160002060010160009054906101000a900473ffffffffffffffffffffffffffffffffffffffff1660086000858152602001908152602001600020600201546008600086815260200190815260200160002060030154604051808581526020018473ffffffffffffffffffffffffffffffffffffffff1673ffffffffffffffffffffffffffffffffffffffff16815260200183815260200182815260200194505050505060405180910390a1600184141561091a5760005460015460086000848152602001908152602001600020600201540281151561091257fe5b049250610945565b60015460005460086000848152602001908152602001600020600201540281151561094157fe5b0492505b7ffc2ba9d3c128590669b6cb008f3e935cd5f1ebb1b3671baf68e4ce0c2eac623b836040518082815260200191505060405180910390a18260086000838152602001908152602001600020600201540191507fd6aa017d64bb110be03cd473bcfc9121cb653df065fef9796ee597a8d6d7b877826040518082815260200191505060405180910390a16008600082815260200190815260200160002060010160009054906101000a900473ffffffffffffffffffffffffffffffffffffffff1673ffffffffffffffffffffffffffffffffffffffff166108fc839081150290604051600060405180830381858888f19350505050158015610a4a573d6000803e3d6000fd5b505b80806001019150506107c7565b600060038190555060008081905550600060018190555060006002819055507f5e71db850570fbf3212548aa42a3aaaff506e3b4910e34ef17f988162c6454206003546040518082815260200191505060405180910390a17f22e6787cfe5d9122cec4f96fbe7de8eea599e8de66c7ea53a96a206f4baecb093073ffffffffffffffffffffffffffffffffffffffff16316040518082815260200191505060405180910390a17f12a972445749701068be9a254a3ac9e45810cf6cb9e2bca3a0dead0c1560143260056040518080602001828103825283818154600181600116156101000203166002900481526020019150805460018160011615610100020316600290048015610bab5780601f10610b8057610100808354040283529160200191610bab565b820191906000526020600020905b815481529060010190602001808311610b8e57829003601f168201915b50509250505060405180910390a1505050505600a165627a7a72305820bb03e8f3c647e2d4ca8c9d760fd976c07f9219f45c27da99d67e55f73d1f0ab60029",
  "source": "// Author: Kristopher Buote\r\n// This contract enables people to stake Ether on a statment being true or false. \r\n// Winnings are distributed automatically as determined by majority stake at the end of staking round.\r\n// ***** WORK IN PROGRESS *****\r\n\r\npragma solidity ^0.4.2;\r\n\r\ncontract TruthStake {\r\n\t// Create a pot that tracks Ether staked on True (T) vs. False (F)\r\n\t// Must keep sub-pots private, but totalPot value should be public\r\n\tuint public TPot; // can be viewed but not modified externally?\r\n\tuint public FPot;\r\n\tuint public totalPot;\r\n\tuint public stakeIndex;\r\n\taddress public marketMaker;\r\n\tstring public statement;\r\n\tuint public stakeEndTime;\r\n\tbool public stakeEnded;\r\n\r\n\t// Keep track of:\r\n\t// Addresses, how much was staked by each address,  and on which position (T or F)\r\n\tstruct Staker {\r\n\t\t// consider probabilistic staking\r\n\t\tuint index; // index of stake\r\n\t\taddress addr; // Staker's address\r\n\t\tuint stake; // Value staked\r\n\t\tuint position; // Staker's position (1 true or 0 false)\r\n\t}\r\n\r\n\t// struct Stake {} \t// Create struct Stake instead of storing in Staker?\r\n    // Stake[] public stakes; \t// A dynamically-sized array of `Stake` structs.\r\n\r\n    // A mapping from their stakeIndex to Staker struct\r\n\tmapping(uint => Staker) private stakers; // TODO: What happens if staker stakes more than once? Use stakeIndex?\r\n\r\n\r\n    // Events that will be emitted on changes.\r\n    event NewStake(uint amount);\r\n    event StakeEnded(uint finalPot);\r\n    event CurrentPot(uint contractBalance);\r\n    event MajorityStaked(uint position);\r\n    event CorrectStaker(uint stakerIndex, address stakerAddr, uint stakerStake, uint stakerPosition);\r\n   \tevent StatementStaked(string statement);\r\n\r\n\r\n\t// Constructor for the first stake on a new statement\r\n\tconstructor (string _statement, uint _stakingTime) public {\r\n\t\t\r\n\t\t// Constructed with nonempty string\r\n\t\trequire(bytes(_statement).length > 0, \"Constructor Argument test\");\r\n\r\n\t\t// Set the end time for stake\r\n\t\tstakeEndTime = now + _stakingTime;\r\n\r\n\t\t// do something with _statement\r\n\t\tstatement = _statement;\r\n\t\temit StatementStaked(statement);\r\n\r\n\t\t// keep address of contract creator\r\n\t\tmarketMaker = msg.sender;\r\n\r\n\t\t// TODO: Consider Initial Stake with constructor?\r\n\t\t// stake(_position);\r\n\r\n\t}\r\n\r\n\tfunction stake(uint _position) public payable { \r\n\r\n\t    // Revert the call if the staking period is over or if insufficient value transacted\r\n        // require(now <= stakeEndTime, \"Stake already ended.\");\r\n\t\trequire(msg.value > 0, \"Insufficient stake value.\"); \r\n\r\n\t\t// Add Staker\r\n\t\t// If a stake is made in constructor(), swap the order of stakeIndex++ and stakers[]\r\n\t\t// and ADD one to the for loop in distribute()\r\n\t\tstakers[stakeIndex] = Staker(stakeIndex, msg.sender, msg.value, _position);\r\n\t\tstakeIndex++;\r\n\r\n\t\temit NewStake(msg.value);\r\n\r\n\t\t// Add the stake to total pot\r\n\t\taddToPot(msg.value, _position);\r\n\r\n\t}\r\n\r\n\tfunction addToPot(uint _amount, uint _position) private {\r\n\t\t// TODO: Ensure the privacy of this!\r\n\t\t// Store the pot's values for later\r\n\t\ttotalPot += _amount;\r\n\r\n\t\tif (_position == 1) {\r\n\t\t\tTPot += _amount;\r\n\t\t}\r\n\t\telse {\r\n\t\t\tFPot += _amount;\r\n\t\t}\r\n\r\n\t\temit CurrentPot(address(this).balance);\r\n\r\n\t}\r\n\r\n\r\n\tfunction endStake() public {\r\n\t\t// 1. Conditions\r\n\t\t// Require that sufficient time has passed and endStake has not already been called\r\n\t\t// require(now >= stakeEndTime, \"There is still staking time remaining.\");\r\n\t\trequire(!stakeEnded, \"endStake has already been called.\");\r\n\r\n\t\t// 2. Effects\r\n\t\tstakeEnded = true;\r\n\t\tuint winningPosition;\r\n\r\n\t\t// find majority position. TODO: Handle ties.\r\n\t\tif ( TPot >= FPot ) {\r\n\t\t\twinningPosition = 1;\r\n\t\t}\r\n\t\telse {\r\n\t\t\twinningPosition = 0;\r\n\t\t}\r\n\r\n\t\t// Emit the total pot value and winning position at end of stake\r\n\t\temit StakeEnded(totalPot);\r\n\t\temit MajorityStaked(winningPosition);\r\n\r\n\t\t// 3. Interactions\r\n\t\t// distribute pot between winners, proportional to their stake\r\n\t\tdistribute(winningPosition);\r\n\r\n\t\t// require(address(this).balance == 0, \"There is ether remaining in the contract!\");\r\n\r\n\r\n\t}\r\n\r\n\r\n\t// Events for debugging\r\n\tevent LoopCheck(uint loopNumber);\r\n\tevent StakerCheck(uint stakersIndex);\r\n\tevent IndexCheck(uint currentStakeIndex);\r\n\tevent RewardCheck(uint rewardTransfered);\r\n\tevent ProfitCheck(uint profitCalculated);\r\n\tevent PotsCheck(uint TPotValue, uint FPotValue);\r\n\r\n\tfunction distribute(uint _winningPosition) private {\r\n\t\t// for (address addr = marketMaker; addr ) // Loop through addresses somehow instead?\r\n\r\n\t\t// TEST send all money to msg.sender\r\n\t\t// msg.sender.transfer(address(this).balance);\r\n\t\tuint profit; // CHECK math and rounding here\r\n\t\tuint reward; // CHECK math and rounding here\r\n\r\n\t\temit CurrentPot(address(this).balance);\r\n\t\temit IndexCheck(stakeIndex);\r\n\r\n\t\t// Loop through stakers, distribute their money\r\n\t\t// Confirm i < stakeIndex is correct \r\n\t\tfor (uint i = 0; i < stakeIndex; i++) {\r\n\r\n\t\t\t// emit StakerCheck(stakers[i].index);\r\n\t\t\t// emit LoopCheck(i);\r\n\r\n\t\t\t// If the staker's position matched the majority\r\n\t\t\t// They receive their original stake + proportion of loser's stakes\r\n\t\t\tif (stakers[i].position == _winningPosition) {\r\n\r\n\t\t\t\t// Profit = (proportion of correct pot staked) * (opposition's pot) \r\n\t\t\t\t// !! WARNING: AVOID ROUNDING -- multiply first!!\r\n\t\t\t\temit CorrectStaker(stakers[i].index, stakers[i].addr, stakers[i].stake, stakers[i].position);\r\n\t\t\t\t\r\n\t\t\t\t// If the majority staked on true\r\n\t\t\t\tif (_winningPosition == 1) {\r\n\t\t\t\t\tprofit = stakers[i].stake * FPot / TPot; \r\n\t\t\t\t}\r\n\r\n\t\t\t\t// If the majority staked on false\r\n\t\t\t\telse {\r\n\t\t\t\t\tprofit = stakers[i].stake * TPot / FPot;\r\n\t\t\t\t}\r\n\r\n\t\t\t\temit ProfitCheck(profit);\r\n\r\n\t\t\t\t// Their reward is original stake + profit\r\n\t\t\t\treward = stakers[i].stake + profit;\r\n\t\t\t\temit RewardCheck(reward);\r\n\r\n\t\t\t\t// Send the winner their reward\r\n\t\t\t\tstakers[i].addr.transfer(reward);\r\n\t\t\t}\r\n\r\n\t\t}\r\n\r\n\t\t// Reset the game\r\n\t\tstakeIndex = 0;\r\n\t\tTPot = 0;\r\n\t\tFPot = 0;\r\n\t\ttotalPot = 0;\r\n\t\temit IndexCheck(stakeIndex);\r\n\t\temit CurrentPot(address(this).balance);\t\t\r\n\t\temit StatementStaked(statement);\r\n\r\n\r\n\r\n\t}\r\n\r\n\r\n}\r\n",
  "sourcePath": "C:\\Users\\Admin\\node.js_projects\\crow_v0\\contracts\\TruthStake.sol",
  "compiler": {
    "name": "solc",
    "version": "0.4.24+commit.e67f0147.Emscripten.clang"
  },
  "schemaVersion": "2.0.1",
  "updatedAt": "2018-10-18T01:55:01.955Z"
}